{
  "contractName": "TimeLockedWallet",
  "abi": [
    {
      "constant": true,
      "inputs": [],
      "name": "creator",
      "outputs": [
        {
          "name": "",
          "type": "address"
        }
      ],
      "payable": false,
      "stateMutability": "view",
      "type": "function"
    },
    {
      "constant": true,
      "inputs": [],
      "name": "info",
      "outputs": [
        {
          "name": "",
          "type": "address"
        },
        {
          "name": "",
          "type": "address"
        },
        {
          "name": "",
          "type": "uint256"
        },
        {
          "name": "",
          "type": "uint256"
        },
        {
          "name": "",
          "type": "uint256"
        }
      ],
      "payable": false,
      "stateMutability": "view",
      "type": "function"
    },
    {
      "constant": false,
      "inputs": [],
      "name": "withdraw",
      "outputs": [],
      "payable": false,
      "stateMutability": "nonpayable",
      "type": "function"
    },
    {
      "constant": false,
      "inputs": [
        {
          "name": "_tokenContract",
          "type": "address"
        }
      ],
      "name": "withdrawTokens",
      "outputs": [],
      "payable": false,
      "stateMutability": "nonpayable",
      "type": "function"
    },
    {
      "constant": true,
      "inputs": [],
      "name": "unlockDate",
      "outputs": [
        {
          "name": "",
          "type": "uint256"
        }
      ],
      "payable": false,
      "stateMutability": "view",
      "type": "function"
    },
    {
      "constant": true,
      "inputs": [],
      "name": "owner",
      "outputs": [
        {
          "name": "",
          "type": "address"
        }
      ],
      "payable": false,
      "stateMutability": "view",
      "type": "function"
    },
    {
      "constant": true,
      "inputs": [],
      "name": "createdAt",
      "outputs": [
        {
          "name": "",
          "type": "uint256"
        }
      ],
      "payable": false,
      "stateMutability": "view",
      "type": "function"
    },
    {
      "inputs": [
        {
          "name": "_creator",
          "type": "address"
        },
        {
          "name": "_owner",
          "type": "address"
        },
        {
          "name": "_unlockDate",
          "type": "uint256"
        }
      ],
      "payable": false,
      "stateMutability": "nonpayable",
      "type": "constructor"
    },
    {
      "payable": true,
      "stateMutability": "payable",
      "type": "fallback"
    },
    {
      "anonymous": false,
      "inputs": [
        {
          "indexed": false,
          "name": "from",
          "type": "address"
        },
        {
          "indexed": false,
          "name": "amount",
          "type": "uint256"
        }
      ],
      "name": "Received",
      "type": "event"
    },
    {
      "anonymous": false,
      "inputs": [
        {
          "indexed": false,
          "name": "to",
          "type": "address"
        },
        {
          "indexed": false,
          "name": "amount",
          "type": "uint256"
        }
      ],
      "name": "Withdrew",
      "type": "event"
    },
    {
      "anonymous": false,
      "inputs": [
        {
          "indexed": false,
          "name": "tokenContract",
          "type": "address"
        },
        {
          "indexed": false,
          "name": "to",
          "type": "address"
        },
        {
          "indexed": false,
          "name": "amount",
          "type": "uint256"
        }
      ],
      "name": "WithdrewTokens",
      "type": "event"
    }
  ],
  "bytecode": "0x6060604052341561000f57600080fd5b6040516060806108bc83398101604052808051906020019091908051906020019091908051906020019091905050826000806101000a81548173ffffffffffffffffffffffffffffffffffffffff021916908373ffffffffffffffffffffffffffffffffffffffff16021790555081600160006101000a81548173ffffffffffffffffffffffffffffffffffffffff021916908373ffffffffffffffffffffffffffffffffffffffff16021790555080600281905550426003819055505050506107de806100de6000396000f300606060405260043610610083576000357c0100000000000000000000000000000000000000000000000000000000900463ffffffff16806302d05d3f146100f0578063370158ea146101455780633ccfd60b146101e257806349df728c146101f757806369ac5721146102305780638da5cb5b14610259578063cf09e0d0146102ae575b7f88a5966d370b9919b20f3e2c13ff65706f196a4e32cc2c12bf57088f885258743334604051808373ffffffffffffffffffffffffffffffffffffffff1673ffffffffffffffffffffffffffffffffffffffff1681526020018281526020019250505060405180910390a1005b34156100fb57600080fd5b6101036102d7565b604051808273ffffffffffffffffffffffffffffffffffffffff1673ffffffffffffffffffffffffffffffffffffffff16815260200191505060405180910390f35b341561015057600080fd5b6101586102fc565b604051808673ffffffffffffffffffffffffffffffffffffffff1673ffffffffffffffffffffffffffffffffffffffff1681526020018573ffffffffffffffffffffffffffffffffffffffff1673ffffffffffffffffffffffffffffffffffffffff1681526020018481526020018381526020018281526020019550505050505060405180910390f35b34156101ed57600080fd5b6101f5610378565b005b341561020257600080fd5b61022e600480803573ffffffffffffffffffffffffffffffffffffffff169060200190919050506104c0565b005b341561023b57600080fd5b610243610780565b6040518082815260200191505060405180910390f35b341561026457600080fd5b61026c610786565b604051808273ffffffffffffffffffffffffffffffffffffffff1673ffffffffffffffffffffffffffffffffffffffff16815260200191505060405180910390f35b34156102b957600080fd5b6102c16107ac565b6040518082815260200191505060405180910390f35b6000809054906101000a900473ffffffffffffffffffffffffffffffffffffffff1681565b60008060008060008060009054906101000a900473ffffffffffffffffffffffffffffffffffffffff16600160009054906101000a900473ffffffffffffffffffffffffffffffffffffffff166002546003543073ffffffffffffffffffffffffffffffffffffffff1631945094509450945094509091929394565b600160009054906101000a900473ffffffffffffffffffffffffffffffffffffffff1673ffffffffffffffffffffffffffffffffffffffff163373ffffffffffffffffffffffffffffffffffffffff161415156103d457600080fd5b60025442101515156103e557600080fd5b3373ffffffffffffffffffffffffffffffffffffffff166108fc3073ffffffffffffffffffffffffffffffffffffffff16319081150290604051600060405180830381858888f19350505050151561043c57600080fd5b7fb244b9a17ad633c6e83b7983ee04320484956a68ddbe96a0b70dfca1cf19d723333073ffffffffffffffffffffffffffffffffffffffff1631604051808373ffffffffffffffffffffffffffffffffffffffff1673ffffffffffffffffffffffffffffffffffffffff1681526020018281526020019250505060405180910390a1565b600080600160009054906101000a900473ffffffffffffffffffffffffffffffffffffffff1673ffffffffffffffffffffffffffffffffffffffff163373ffffffffffffffffffffffffffffffffffffffff1614151561051f57600080fd5b600254421015151561053057600080fd5b8291508173ffffffffffffffffffffffffffffffffffffffff166370a08231306000604051602001526040518263ffffffff167c0100000000000000000000000000000000000000000000000000000000028152600401808273ffffffffffffffffffffffffffffffffffffffff1673ffffffffffffffffffffffffffffffffffffffff168152602001915050602060405180830381600087803b15156105d657600080fd5b6102c65a03f115156105e757600080fd5b5050506040518051905090508173ffffffffffffffffffffffffffffffffffffffff1663a9059cbb600160009054906101000a900473ffffffffffffffffffffffffffffffffffffffff16836000604051602001526040518363ffffffff167c0100000000000000000000000000000000000000000000000000000000028152600401808373ffffffffffffffffffffffffffffffffffffffff1673ffffffffffffffffffffffffffffffffffffffff16815260200182815260200192505050602060405180830381600087803b15156106c057600080fd5b6102c65a03f115156106d157600080fd5b50505060405180519050507fa04c965e7d289704527a948915777d68bb4530fb4b08aa935fb958c0b7901ab9833383604051808473ffffffffffffffffffffffffffffffffffffffff1673ffffffffffffffffffffffffffffffffffffffff1681526020018373ffffffffffffffffffffffffffffffffffffffff1673ffffffffffffffffffffffffffffffffffffffff168152602001828152602001935050505060405180910390a1505050565b60025481565b600160009054906101000a900473ffffffffffffffffffffffffffffffffffffffff1681565b600354815600a165627a7a723058200d0859cc3f205cf3638dcdab4ea752e6eff000c51113a3fde3d806488b6e48ba0029",
  "source": "pragma solidity ^0.4.18;\n\n\n/**\n * @title ERC20\n * @dev see https://github.com/ethereum/EIPs/issues/20\n */\ncontract ERC20 {\n  uint256 public totalSupply;\n\n  function balanceOf(address who) public view returns (uint256);\n  function transfer(address to, uint256 value) public returns (bool);\n  function allowance(address owner, address spender) public view returns (uint256);\n  function transferFrom(address from, address to, uint256 value) public returns (bool);\n  function approve(address spender, uint256 value) public returns (bool);\n\n  event Approval(address indexed owner, address indexed spender, uint256 value);\n  event Transfer(address indexed from, address indexed to, uint256 value);\n}\n\ncontract TimeLockedWallet {\n\n    address public creator;\n    address public owner;\n    uint public unlockDate;\n    uint public createdAt;\n\n    modifier onlyOwner {\n        require(msg.sender == owner);\n        _;\n    }\n\n    function TimeLockedWallet(\n        address _creator,\n        address _owner,\n        uint _unlockDate\n    ) public {\n        creator = _creator;\n        owner = _owner;\n        unlockDate = _unlockDate;\n        createdAt = now;\n    }\n\n    // keep all the ether sent to this address\n    function() payable public { \n        Received(msg.sender, msg.value);\n    }\n\n    // callable by owner only, after specified time\n    function withdraw() onlyOwner public {\n       require(now >= unlockDate);\n       //now send all the balance\n       msg.sender.transfer(this.balance);\n       Withdrew(msg.sender, this.balance);\n    }\n\n    // callable by owner only, after specified time, only for Tokens implementing ERC20\n    function withdrawTokens(address _tokenContract) onlyOwner public {\n       require(now >= unlockDate);\n       ERC20 token = ERC20(_tokenContract);\n       //now send all the token balance\n       uint tokenBalance = token.balanceOf(this);\n       token.transfer(owner, tokenBalance);\n       WithdrewTokens(_tokenContract, msg.sender, tokenBalance);\n    }\n\n    function info() public view returns(address, address, uint, uint, uint) {\n        return (creator, owner, unlockDate, createdAt, this.balance);\n    }\n\n    event Received(address from, uint amount);\n    event Withdrew(address to, uint amount);\n    event WithdrewTokens(address tokenContract, address to, uint amount);\n}\n\ncontract TimeLockedWalletFactory {\n \n    mapping(address => address[]) wallets;\n\n    function getWallets(address _user) \n        public\n        view\n        returns(address[])\n    {\n        return wallets[_user];\n    }\n\n    function newTimeLockedWallet(address _owner, uint _unlockDate)\n        payable\n        public\n        returns(address wallet)\n    {\n        // Create new wallet.\n        wallet = new TimeLockedWallet(msg.sender, _owner, _unlockDate);\n        \n        // Add wallet to sender's wallets.\n        wallets[msg.sender].push(wallet);\n\n        // If owner is the same as sender then add wallet to sender's wallets too.\n        if(msg.sender != _owner){\n            wallets[_owner].push(wallet);\n        }\n\n        // Send ether from this transaction to the created contract.\n        wallet.transfer(msg.value);\n\n        // Emit event.\n        Created(wallet, msg.sender, _owner, now, _unlockDate, msg.value);\n    }\n\n    // Prevents accidental sending of ether to the factory\n    function () public {\n        revert();\n    }\n\n    event Created(address wallet, address from, address to, uint createdAt, uint unlockDate, uint amount);\n}\n\n",
  "sourcePath": "/Users/radek/git/time-locked-wallets/contracts/AllWallet.sol",
  "compiler": {
    "name": "solc",
    "version": "0.4.18+commit.9cf6e910.Emscripten.clang"
  },
  "schemaVersion": "1.0.1",
  "updatedAt": "2018-01-30T00:44:02.139Z"
}